{
  "contractName": "DecentralizedTaxi",
  "abi": [
    {
      "inputs": [],
      "payable": false,
      "stateMutability": "nonpayable",
      "type": "constructor"
    },
    {
      "anonymous": false,
      "inputs": [
        {
          "indexed": false,
          "internalType": "uint256",
          "name": "customerId",
          "type": "uint256"
        },
        {
          "indexed": false,
          "internalType": "uint256",
          "name": "driverId",
          "type": "uint256"
        },
        {
          "indexed": false,
          "internalType": "uint256",
          "name": "price",
          "type": "uint256"
        }
      ],
      "name": "CabAccepted",
      "type": "event"
    },
    {
      "anonymous": false,
      "inputs": [
        {
          "indexed": false,
          "internalType": "uint256",
          "name": "customerId",
          "type": "uint256"
        }
      ],
      "name": "CabCancelled",
      "type": "event"
    },
    {
      "anonymous": false,
      "inputs": [
        {
          "indexed": false,
          "internalType": "uint256",
          "name": "customerId",
          "type": "uint256"
        },
        {
          "indexed": false,
          "internalType": "bool",
          "name": "status",
          "type": "bool"
        }
      ],
      "name": "CabRequested",
      "type": "event"
    },
    {
      "anonymous": false,
      "inputs": [
        {
          "indexed": false,
          "internalType": "uint256",
          "name": "id",
          "type": "uint256"
        },
        {
          "indexed": false,
          "internalType": "address",
          "name": "wallet",
          "type": "address"
        }
      ],
      "name": "CustomerCreated",
      "type": "event"
    },
    {
      "anonymous": false,
      "inputs": [
        {
          "indexed": false,
          "internalType": "uint256",
          "name": "id",
          "type": "uint256"
        },
        {
          "indexed": false,
          "internalType": "address payable",
          "name": "wallet",
          "type": "address"
        }
      ],
      "name": "DriverCreated",
      "type": "event"
    },
    {
      "constant": true,
      "inputs": [
        {
          "internalType": "address",
          "name": "",
          "type": "address"
        }
      ],
      "name": "customerIDs",
      "outputs": [
        {
          "internalType": "uint256",
          "name": "",
          "type": "uint256"
        }
      ],
      "payable": false,
      "stateMutability": "view",
      "type": "function"
    },
    {
      "constant": true,
      "inputs": [
        {
          "internalType": "uint256",
          "name": "",
          "type": "uint256"
        }
      ],
      "name": "customers",
      "outputs": [
        {
          "internalType": "uint256",
          "name": "id",
          "type": "uint256"
        },
        {
          "internalType": "bool",
          "name": "ride_status",
          "type": "bool"
        },
        {
          "internalType": "address payable",
          "name": "cust_wallet",
          "type": "address"
        }
      ],
      "payable": false,
      "stateMutability": "view",
      "type": "function"
    },
    {
      "constant": true,
      "inputs": [
        {
          "internalType": "address",
          "name": "",
          "type": "address"
        }
      ],
      "name": "driverIDs",
      "outputs": [
        {
          "internalType": "uint256",
          "name": "",
          "type": "uint256"
        }
      ],
      "payable": false,
      "stateMutability": "view",
      "type": "function"
    },
    {
      "constant": true,
      "inputs": [
        {
          "internalType": "uint256",
          "name": "",
          "type": "uint256"
        }
      ],
      "name": "drivers",
      "outputs": [
        {
          "internalType": "uint256",
          "name": "id",
          "type": "uint256"
        },
        {
          "internalType": "uint256",
          "name": "numberOfRides",
          "type": "uint256"
        },
        {
          "internalType": "bool",
          "name": "drive_status",
          "type": "bool"
        },
        {
          "internalType": "address payable",
          "name": "driver_wallet",
          "type": "address"
        }
      ],
      "payable": false,
      "stateMutability": "view",
      "type": "function"
    },
    {
      "constant": true,
      "inputs": [],
      "name": "name",
      "outputs": [
        {
          "internalType": "string",
          "name": "",
          "type": "string"
        }
      ],
      "payable": false,
      "stateMutability": "view",
      "type": "function"
    },
    {
      "constant": true,
      "inputs": [],
      "name": "owner",
      "outputs": [
        {
          "internalType": "address",
          "name": "",
          "type": "address"
        }
      ],
      "payable": false,
      "stateMutability": "view",
      "type": "function"
    },
    {
      "constant": true,
      "inputs": [],
      "name": "totalCustomers",
      "outputs": [
        {
          "internalType": "uint256",
          "name": "",
          "type": "uint256"
        }
      ],
      "payable": false,
      "stateMutability": "view",
      "type": "function"
    },
    {
      "constant": true,
      "inputs": [],
      "name": "totalDrivers",
      "outputs": [
        {
          "internalType": "uint256",
          "name": "",
          "type": "uint256"
        }
      ],
      "payable": false,
      "stateMutability": "view",
      "type": "function"
    },
    {
      "constant": false,
      "inputs": [],
      "name": "createCustomer",
      "outputs": [],
      "payable": false,
      "stateMutability": "nonpayable",
      "type": "function"
    },
    {
      "constant": false,
      "inputs": [],
      "name": "createDriver",
      "outputs": [],
      "payable": false,
      "stateMutability": "nonpayable",
      "type": "function"
    },
    {
      "constant": false,
      "inputs": [
        {
          "internalType": "uint256",
          "name": "_customerId",
          "type": "uint256"
        }
      ],
      "name": "requestRide",
      "outputs": [],
      "payable": false,
      "stateMutability": "nonpayable",
      "type": "function"
    },
    {
      "constant": false,
      "inputs": [
        {
          "internalType": "uint256",
          "name": "_customerId",
          "type": "uint256"
        },
        {
          "internalType": "uint256",
          "name": "driverId",
          "type": "uint256"
        },
        {
          "internalType": "uint256",
          "name": "price",
          "type": "uint256"
        }
      ],
      "name": "acceptRide",
      "outputs": [],
      "payable": true,
      "stateMutability": "payable",
      "type": "function"
    },
    {
      "constant": false,
      "inputs": [
        {
          "internalType": "uint256",
          "name": "_customerId",
          "type": "uint256"
        }
      ],
      "name": "cancelRide",
      "outputs": [],
      "payable": false,
      "stateMutability": "nonpayable",
      "type": "function"
    }
  ],
  "bytecode": "0x60806040526040518060400160405280600981526020017f44546178692041707000000000000000000000000000000000000000000000008152506000908051906020019062000051929190620000b1565b50600060025560006003553480156200006957600080fd5b5033600160006101000a81548173ffffffffffffffffffffffffffffffffffffffff021916908373ffffffffffffffffffffffffffffffffffffffff16021790555062000160565b828054600181600116156101000203166002900490600052602060002090601f016020900481019282601f10620000f457805160ff191683800117855562000125565b8280016001018555821562000125579182015b828111156200012457825182559160200191906001019062000107565b5b50905062000134919062000138565b5090565b6200015d91905b80821115620001595760008160009055506001016200013f565b5090565b90565b6111f680620001706000396000f3fe6080604052600436106100c25760003560e01c80639327b0771161007f578063c0abda2a11610059578063c0abda2a14610338578063dc74d068146103c5578063e8dc572c1461042a578063f79e545014610441576100c2565b80639327b0771461029757806399fa753b146102d2578063a6f07b29146102fd576100c2565b806306fdde03146100c7578063121d05f0146101575780631866dcfb146101bc5780631c8d6982146101e757806362254dc3146102295780638da5cb5b14610240575b600080fd5b3480156100d357600080fd5b506100dc6104d5565b6040518080602001828103825283818151815260200191508051906020019080838360005b8381101561011c578082015181840152602081019050610101565b50505050905090810190601f1680156101495780820380516001836020036101000a031916815260200191505b509250505060405180910390f35b34801561016357600080fd5b506101a66004803603602081101561017a57600080fd5b81019080803573ffffffffffffffffffffffffffffffffffffffff169060200190929190505050610573565b6040518082815260200191505060405180910390f35b3480156101c857600080fd5b506101d161058b565b6040518082815260200191505060405180910390f35b610227600480360360608110156101fd57600080fd5b81019080803590602001909291908035906020019092919080359060200190929190505050610591565b005b34801561023557600080fd5b5061023e610962565b005b34801561024c57600080fd5b50610255610b9d565b604051808273ffffffffffffffffffffffffffffffffffffffff1673ffffffffffffffffffffffffffffffffffffffff16815260200191505060405180910390f35b3480156102a357600080fd5b506102d0600480360360208110156102ba57600080fd5b8101908080359060200190929190505050610bc3565b005b3480156102de57600080fd5b506102e7610d5f565b6040518082815260200191505060405180910390f35b34801561030957600080fd5b506103366004803603602081101561032057600080fd5b8101908080359060200190929190505050610d65565b005b34801561034457600080fd5b506103716004803603602081101561035b57600080fd5b8101908080359060200190929190505050610e42565b60405180848152602001831515151581526020018273ffffffffffffffffffffffffffffffffffffffff1673ffffffffffffffffffffffffffffffffffffffff168152602001935050505060405180910390f35b3480156103d157600080fd5b50610414600480360360208110156103e857600080fd5b81019080803573ffffffffffffffffffffffffffffffffffffffff169060200190929190505050610e99565b6040518082815260200191505060405180910390f35b34801561043657600080fd5b5061043f610eb1565b005b34801561044d57600080fd5b5061047a6004803603602081101561046457600080fd5b81019080803590602001909291905050506110fd565b60405180858152602001848152602001831515151581526020018273ffffffffffffffffffffffffffffffffffffffff1673ffffffffffffffffffffffffffffffffffffffff16815260200194505050505060405180910390f35b60008054600181600116156101000203166002900480601f01602080910402602001604051908101604052809291908181526020018280546001816001161561010002031660029004801561056b5780601f106105405761010080835404028352916020019161056b565b820191906000526020600020905b81548152906001019060200180831161054e57829003601f168201915b505050505081565b60066020528060005260406000206000915090505481565b60025481565b670de0b6b3a764000081101561060f576040517f08c379a00000000000000000000000000000000000000000000000000000000081526004018080602001828103825260188152602001807f4d696e696d756d2070726963652069732031204574686572000000000000000081525060200191505060405180910390fd5b803414610684576040517f08c379a00000000000000000000000000000000000000000000000000000000081526004018080602001828103825260148152602001807f496e636f72726563742076616c75652073656e7400000000000000000000000081525060200191505060405180910390fd5b60006005600085815260200190815260200160002090506000600460008581526020019081526020016000209050600115158260010160009054906101000a900460ff16151514610720576040517f08c379a000000000000000000000000000000000000000000000000000000000815260040180806020018281038252602381526020018061117d6023913960400191505060405180910390fd5b600015158160020160009054906101000a900460ff161515146107ab576040517f08c379a00000000000000000000000000000000000000000000000000000000081526004018080602001828103825260188152602001807f447269766572206d75737420626520617661696c61626c65000000000000000081525060200191505060405180910390fd5b8060020160019054906101000a900473ffffffffffffffffffffffffffffffffffffffff1673ffffffffffffffffffffffffffffffffffffffff168260010160019054906101000a900473ffffffffffffffffffffffffffffffffffffffff1673ffffffffffffffffffffffffffffffffffffffff161415610878576040517f08c379a000000000000000000000000000000000000000000000000000000000815260040180806020018281038252602281526020018061115b6022913960400191505060405180910390fd5b60008260010160006101000a81548160ff02191690831515021790555080600101600081548092919060010191905055508160010160019054906101000a900473ffffffffffffffffffffffffffffffffffffffff1673ffffffffffffffffffffffffffffffffffffffff166108fc349081150290604051600060405180830381858888f19350505050158015610913573d6000803e3d6000fd5b507fc83b5ad62b848135e5f7da2273be1505baf3b371393b9e61c26c585075c581f185858560405180848152602001838152602001828152602001935050505060405180910390a15050505050565b6000600760003373ffffffffffffffffffffffffffffffffffffffff1673ffffffffffffffffffffffffffffffffffffffff1681526020019081526020016000205414610a17576040517f08c379a000000000000000000000000000000000000000000000000000000000815260040180806020018281038252601b8152602001807f437573746f6d657220616c72656164792072656769737465726564000000000081525060200191505060405180910390fd5b600260008154809291906001019190505550600254600760003373ffffffffffffffffffffffffffffffffffffffff1673ffffffffffffffffffffffffffffffffffffffff16815260200190815260200160002081905550604051806060016040528060025481526020016000151581526020013373ffffffffffffffffffffffffffffffffffffffff168152506005600060025481526020019081526020016000206000820151816000015560208201518160010160006101000a81548160ff02191690831515021790555060408201518160010160016101000a81548173ffffffffffffffffffffffffffffffffffffffff021916908373ffffffffffffffffffffffffffffffffffffffff1602179055509050507f913a65b860307f13169817bcc54417231a67f37a43908cd2576390f5ed04c42660025433604051808381526020018273ffffffffffffffffffffffffffffffffffffffff1673ffffffffffffffffffffffffffffffffffffffff1681526020019250505060405180910390a1565b600160009054906101000a900473ffffffffffffffffffffffffffffffffffffffff1681565b60018110158015610bd657506002548111155b610c48576040517f08c379a00000000000000000000000000000000000000000000000000000000081526004018080602001828103825260138152602001807f496e76616c696420437573746f6d65722049440000000000000000000000000081525060200191505060405180910390fd5b6000600560008381526020019081526020016000209050600015158160010160009054906101000a900460ff16151514610cea576040517f08c379a000000000000000000000000000000000000000000000000000000000815260040180806020018281038252601e8152602001807f437573746f6d6572206e6565647320746f20626520617661696c61626c65000081525060200191505060405180910390fd5b60018160010160006101000a81548160ff0219169083151502179055507ff10182918a25003d82bb295c41a6c465757f82b0a1400da84e35f5c9ab0fe07b828260010160009054906101000a900460ff1660405180838152602001821515151581526020019250505060405180910390a15050565b60035481565b6000600560008381526020019081526020016000209050600115158160010160009054906101000a900460ff16151514610dea576040517f08c379a00000000000000000000000000000000000000000000000000000000081526004018080602001828103825260228152602001806111a06022913960400191505060405180910390fd5b60008160010160006101000a81548160ff0219169083151502179055507fc1e3eaea3e45263ffc53bcd92e6861c34ba713c4616a22c17f23320f6aecb315826040518082815260200191505060405180910390a15050565b60056020528060005260406000206000915090508060000154908060010160009054906101000a900460ff16908060010160019054906101000a900473ffffffffffffffffffffffffffffffffffffffff16905083565b60076020528060005260406000206000915090505481565b6000600660003373ffffffffffffffffffffffffffffffffffffffff1673ffffffffffffffffffffffffffffffffffffffff1681526020019081526020016000205414610f66576040517f08c379a00000000000000000000000000000000000000000000000000000000081526004018080602001828103825260198152602001807f44726976657220616c726561647920726567697374657265640000000000000081525060200191505060405180910390fd5b600360008154809291906001019190505550600354600660003373ffffffffffffffffffffffffffffffffffffffff1673ffffffffffffffffffffffffffffffffffffffff1681526020019081526020016000208190555060405180608001604052806003548152602001600081526020016000151581526020013373ffffffffffffffffffffffffffffffffffffffff16815250600460006003548152602001908152602001600020600082015181600001556020820151816001015560408201518160020160006101000a81548160ff02191690831515021790555060608201518160020160016101000a81548173ffffffffffffffffffffffffffffffffffffffff021916908373ffffffffffffffffffffffffffffffffffffffff1602179055509050507fa92968ef8d33801be5df15218aa9a4ad8d8974fed380ff74c38961e94698390560035433604051808381526020018273ffffffffffffffffffffffffffffffffffffffff1673ffffffffffffffffffffffffffffffffffffffff1681526020019250505060405180910390a1565b60046020528060005260406000206000915090508060000154908060010154908060020160009054906101000a900460ff16908060020160019054906101000a900473ffffffffffffffffffffffffffffffffffffffff1690508456fe437573746f6d657220616e64206472697665722063616e6e6f742062652073616d65437573746f6d6572206d7573742062652077616974696e6720666f722061207461786943616e6e6f742063616e63656c20616674657220616363657074696e672072696465a265627a7a723158208fcf38d669d02f63d0507c1f796a3ddd77235c4a7ed6972a17f5f59e08eec4c864736f6c63430005110032",
  "source": "// SPDX-License-Identifier: MIT\r\npragma solidity >=0.4.21 <=0.8.19;\r\n\r\ncontract DecentralizedTaxi{\r\n    string public name = \"DTaxi App\";\r\n    address public owner;\r\n\r\n    struct Customer{\r\n        uint id;\r\n        bool ride_status;\r\n        address payable cust_wallet;\r\n    }\r\n    struct Driver{\r\n        uint id;\r\n        uint numberOfRides;\r\n        bool drive_status;\r\n        address payable driver_wallet;\r\n    }\r\n    uint256 public totalCustomers = 0;\r\n    uint256 public totalDrivers = 0;\r\n\r\n    mapping(uint => Driver) public drivers;\r\n    mapping(uint => Customer) public customers;\r\n    mapping(address => uint) public driverIDs;\r\n    mapping(address => uint) public customerIDs;\r\n\r\n    event CustomerCreated(uint id, address wallet);\r\n    event DriverCreated(uint id, address payable wallet);\r\n    event CabRequested(uint customerId, bool status);\r\n    event CabAccepted(uint customerId, uint driverId, uint price);\r\n    event CabCancelled(uint customerId);\r\n\r\n    constructor() public{\r\n        owner = msg.sender;\r\n    }\r\n\r\n    function createCustomer() public {\r\n        require(customerIDs[msg.sender] == 0, \"Customer already registered\");\r\n        totalCustomers++;\r\n        customerIDs[msg.sender] = totalCustomers;\r\n        customers[totalCustomers] = Customer(totalCustomers, false, msg.sender);\r\n        emit CustomerCreated(totalCustomers,msg.sender);\r\n    }\r\n\r\n    function createDriver() public {\r\n        require(driverIDs[msg.sender] == 0, \"Driver already registered\");\r\n        totalDrivers++;\r\n        driverIDs[msg.sender] = totalDrivers;\r\n        drivers[totalDrivers] = Driver(totalDrivers, 0, false, msg.sender);\r\n        emit DriverCreated(totalDrivers,msg.sender);\r\n    }\r\n\r\n    function requestRide(uint _customerId) public {\r\n        require(_customerId >= 1 && _customerId <= totalCustomers, \"Invalid Customer ID\");\r\n        Customer storage cust = customers[_customerId];\r\n        require(cust.ride_status ==false,\"Customer needs to be available\");\r\n        cust.ride_status = true;\r\n        emit CabRequested(_customerId, cust.ride_status);\r\n    }\r\n\r\n    function acceptRide(uint _customerId, uint driverId, uint price) public payable {\r\n        require(price >= 1 ether, \"Minimum price is 1 Ether\");\r\n        require(msg.value == price, \"Incorrect value sent\");\r\n        //required drive status==0 & customer status==1\r\n        \r\n        Customer storage cust = customers[_customerId];\r\n        Driver storage driver = drivers[driverId];\r\n\r\n        require(cust.ride_status == true, \"Customer must be waiting for a taxi\");\r\n        require(driver.drive_status ==false, \"Driver must be available\");\r\n        require(cust.cust_wallet != driver.driver_wallet, \"Customer and driver cannot be same\");\r\n\r\n        cust.ride_status = false;\r\n        driver.numberOfRides++;\r\n        cust.cust_wallet.transfer(msg.value);\r\n\r\n        emit CabAccepted(_customerId, driverId, price);\r\n    }\r\n\r\n    function cancelRide(uint _customerId) public {\r\n        Customer storage cust = customers[_customerId];\r\n        require(cust.ride_status==true,\"Cannot cancel after accepting ride\");\r\n        cust.ride_status=false;\r\n        emit CabCancelled(_customerId);\r\n    }\r\n    //Fix the cancelRide function to allow cancelation only before ride is accepted.\r\n}",
  "sourcePath": "C:\\Users\\praje\\Downloads\\Project\\src\\contracts\\DecentralizedTaxi.sol",
  "compiler": {
    "name": "solc",
    "version": "0.5.17+commit.d19bba13.Emscripten.clang"
  },
  "schemaVersion": "3.4.16",
  "updatedAt": "2023-11-28T13:25:17.269Z",
  "devdoc": {
    "methods": {}
  },
  "userdoc": {
    "methods": {}
  }
}